:020000040000FA
:100000000C9463000C948B000C948B000C948B006C
:100010000C948B000C948B000C948B000C944E076A
:100020000C948B000C948B000C948B000C94720835
:100030000C948B000C948B000C948B000C948B0014
:100040000C9428080C948B000C94F6070C94D007A1
:100050000C948B000C948B000C948B000C948B00F4
:100060000C942E090C948B00000000002400270043
:100070002A000000000023002600290000000008DC
:10008000000201000003040700000000000000005F
:10009000010204081020408001020408102001021F
:1000A0000408102000000000250028002B00040494
:1000B0000404040404040202020202020303030310
:1000C000030302004D0A11241FBECFEFD8E0DEBFAC
:1000D000CDBF11E0A0E0B1E0E8EFF3E202C005908F
:1000E0000D92AC37B107D9F723E0ACE7B1E001C01E
:1000F0001D92A035B207E1F710E0C3E6D0E004C0DE
:100100002197FE010E940210C236D107C9F70E9452
:10011000F90A0C94FA110C9400008F929F92AF92FE
:10012000BF92FF920F931F93CF93DF93F090220320
:100130002BE02F1508F44CC02091240308E512E0B1
:10014000021B110927FD1395000F111F000F111F2E
:1001500020912303C8E8D0E0C21BD10927FDD39525
:10016000CC0FDD1FCC0FDD1F4E010D2E000CAA0899
:10017000BB089801012E000C440B550B28193909B6
:100180004A095B09DC010E94860F24EB30E040E065
:1001900050E00E945C0F820E931EA41EB51E8C16AA
:1001A0009D062CF0E801801691060CF4E4012297DC
:1001B000CC0FDD1F2FB7F8948F2D90E0FC01EE0FD0
:1001C000FF1FE80FF91FE350FD4FD283C1832FBFFC
:1001D000DF91CF911F910F91FF90BF90AF909F90B3
:1001E0008F900895AF92BF92CF92DF92EF92FF92DD
:1001F0000F931F93CF93DF936C017B018B01040F4F
:10020000151FEB015E01AE18BF08C017D10759F0EA
:100210006991D601ED91FC910190F081E02DC6012C
:100220000995892B79F7C501DF91CF911F910F9126
:10023000FF90EF90DF90CF90BF90AF900895FB01BB
:1002400044815581608171810C94F200FC01538DD1
:10025000448D252F30E0842F90E0821B930B5417A0
:1002600010F0CF96089501970895FC01918D828D2D
:10027000981761F0A28DAE0FBF2FB11D5D968C91C6
:10028000928D9F5F9F73928F90E008958FEF9FEF05
:100290000895FC01918D828D981731F0828DE80FC1
:1002A000F11D858D90E008958FEF9FEF0895FC017B
:1002B000918D228D892F90E0805C9F4F821B910948
:1002C0008F739927089584E592E00E94570121E0F9
:1002D000892B09F420E0822F089580E090E0892B9B
:1002E00029F00E94630181110C9400000895FC0123
:1002F000A48DA80FB92FB11DA35ABF4F2C91848D87
:1003000090E001968F739927848FA689B7892C93E3
:10031000A089B1898C91837080648C93938D848D36
:10032000981306C00288F389E02D80818F7D808339
:100330000895EF92FF920F931F93CF93DF93EC01F9
:1003400081E0888F9B8D8C8D98131AC0E889F9897C
:10035000808185FF15C09FB7F894EE89FF8960837F
:10036000E889F98980818370806480839FBF81E000
:1003700090E0DF91CF911F910F91FF90EF90089542
:10038000F62E0B8D10E00F5F1F4F0F731127E02E1D
:100390008C8D8E110CC00FB607FCFACFE889F98955
:1003A000808185FFF5CFCE010E947701F1CFEB8DE3
:1003B000EC0FFD2FF11DE35AFF4FF0829FB7F89429
:1003C0000B8FEA89FB8980818062CFCFCF93DF9347
:1003D000EC01888D8823B9F0AA89BB89E889F9895D
:1003E0008C9185FD03C0808186FD0DC00FB607FC92
:1003F000F7CF8C9185FFF2CF808185FFEDCFCE01C5
:100400000E947701E9CFDF91CF910895833081F089
:1004100028F4813099F08230A9F008958730A9F04E
:100420008830C9F08430B1F4809180008F7D03C0A2
:10043000809180008F7780938000089584B58F77B6
:1004400084BD089584B58F7DFBCF8091B0008F77F8
:100450008093B00008958091B0008F7DF9CFCF9345
:10046000DF93282F30E0F901E458FF4F8491F90120
:10047000E057FF4FD491F901E255FF4FC491CC23CF
:10048000A1F081110E940602EC2FF0E0EE0FFF1F99
:10049000EE58FF4FA591B491EC91ED2381E090E0EF
:1004A00009F480E0DF91CF91089580E090E0FACFE9
:1004B0001F93CF93DF93282F30E0F901E458FF4FCB
:1004C0008491F901E057FF4FD491F901E255FF4FB4
:1004D000C491CC23A9F0162F81110E940602EC2FA3
:1004E000F0E0EE0FFF1FEC55FF4FA591B4918FB7D1
:1004F000F894EC91111108C0D095DE23DC938FBFE6
:10050000DF91CF911F910895DE2BF8CFCF93DF932A
:1005100090E0FC01E057FF4F249182559F4FFC0172
:1005200084918823C9F090E0880F991FFC01E85955
:10053000FF4FA591B491FC01EC55FF4FC591D491AB
:1005400061110DC09FB7F8948C91209582238C93F4
:100550008881282328839FBFDF91CF91089562303F
:1005600051F49FB7F8943C91822F809583238C930C
:10057000E8812E2BEFCF8FB7F894EC912E2B2C9394
:100580008FBFEACF3FB7F89480913C0290913D0233
:10059000A0913E02B0913F0226B5A89B05C02F3F17
:1005A00019F00196A11DB11D3FBFBA2FA92F982F99
:1005B0008827BC01CD01620F711D811D911D42E094
:1005C000660F771F881F991F4A95D1F708958F925C
:1005D0009F92AF92BF92CF92DF92EF92FF924B0128
:1005E0005C010E94C2026B017C010E94C2026C1974
:1005F0007D098E099F09683E734081059105A8F326
:1006000021E0821A9108A108B10888EEC80E83E0A3
:10061000D81EE11CF11C81149104A104B10429F736
:10062000FF90EF90DF90CF90BF90AF909F908F9012
:1006300008950895089508952091BD01260F332748
:10064000331F21323105ECF420910C02FC0190E0C3
:1006500080E0243069F082E00895A091BD012191ED
:10066000AC0143565E4FA40FB52FB11D2C930196DC
:10067000861798F38091BD01680F6093BD0180E0FB
:10068000089581E0089510920C0281E080930B029E
:100690001092E60161E082E10E94580261E083E18C
:1006A0000E945802E9EBF0E080818E7F8083808198
:1006B0008D7F808388E48093B80085E48093BC00BC
:1006C0000895CF93DF9391E090939C018823B9F034
:1006D000C091B800D091BA008091BC008A7B809311
:1006E000BC0060E082E10E94580260E083E10E9469
:1006F00058020E944303D093BA00C093B800DF9120
:10070000CF9108950895E091E5018091E401E81703
:1007100030F4F0E0E458FE4F808190E008958FEFD0
:100720009FEF08959091E5018091E4012FEF3FEF55
:10073000981748F4E92FF0E0E458FE4F208130E0AC
:100740009F5F9093E501C90108958091E401909124
:10075000E501891B990B0895CF92DF92EF92FF92EA
:100760000F931F93CF93DF937C01CB018A012091DC
:100770001202222389F0EB016B01C40ED51ECC15A9
:10078000DD0569F06991D701ED91FC910190F0814F
:10079000E02DC7010995F3CF642F0E941C03C80107
:1007A000DF91CF911F910F91FF90EF90DF90CF904D
:1007B0000895CF93DF931F92CDB7DEB76983209161
:1007C00012022223F9F020913502203258F021E064
:1007D00030E0FC013383228390E080E00F90DF91D2
:1007E000CF91089580911302E82FF0E0EC5EFD4F69
:1007F000998190838F5F809313028093350281E00B
:1008000090E0ECCF61E0CE0101960E941C03F7CF8F
:10081000CF92DF92EF92FF920F931F93CF93DF93CC
:10082000FC01C48121E020931202C0933402109293
:100830001302109235028485682B81EF92E00E94AA
:10084000D903D0913502D13208F092C00E94C20281
:100850006B017C0180910C02811165C082E0809364
:100860000C0281E080930B028FEF80930A021092BA
:100870000902D0930802A4E1B2E0E8EEF1E080E0E2
:10088000D81385C01092E7018091E701CC0FC82BE7
:10089000C093E7018091E601813009F07CC010929D
:1008A000E6010E94C2026B017C018091E701809306
:1008B000BB0080910E0290910F02A0911002B091A6
:1008C0001102892B8A2B8B2B99F00E94C202009176
:1008D0000E0210910F0220911002309111026C193A
:1008E0007D098E099F090617170728073907E0F1C8
:1008F0008091BC0083FDD9CF85EC8093BC000E9421
:10090000C2026B017C0180910C02823009F445C067
:1009100080910A028F3F61F180910A02803241F199
:1009200080910A0225C080910E0290910F02A09141
:100930001002B0911102892B8A2B8B2B09F48ACFDC
:100940000E94C20200910E0210910F02209110022B
:10095000309111026C197D098E099F09061717073E
:100960002807390708F076CF80910D020E946103B5
:10097000109213021092350210921202DF91CF9161
:100980001F910F91FF90EF90DF90CF9008959D9170
:1009900091938F5F75CF85EEB0CF80910E029091CD
:1009A0000F02A0911002B0911102892B8A2B8B2B80
:1009B00009F4A9CF0E94C20200910E0210910F0209
:1009C00020911002309111026C197D098E099F0946
:1009D000061717072807390708F095CFC5CF90E00D
:1009E00080E00895FB0101900020E9F73197AF0105
:1009F000461B570B0C94F2000F931F93CF938C015F
:100A0000C62F0E9408046C2F6460C8010E9408046D
:100A10006C2F6B7FC8010E94080483EC90E0019763
:100A2000F1F7CF911F910F9108950F931F93CF93DB
:100A3000DF938C01D62FC42F607F642B0E94FC04AF
:100A400080E1D89FB00111246C2BC801DF91CF91B8
:100A50001F910F910C94FC0440E060E80C94150584
:100A6000CF93DF93EC0140E061E00E9415058BE33A
:100A70009FE10197F1F78985882329F0CE01DF9165
:100A8000CF910C942C05DF91CF91089541E00E9405
:100A9000150581E090E008950F931F93CF93DF93A6
:100AA000EC011092E5011092E401109213021092F1
:100AB00035020E94430389E193E09093E301809320
:100AC000E2018AE193E09093E1018093E0011D82CD
:100AD0008B85823010F098E09D83888762E370E018
:100AE00080E090E00E94E7026C85CE010E9408043D
:100AF00068EE73E080E090E00E94E70260E3CE01E0
:100B00000E94FC040BE416E4C8010197F1F760E3CE
:100B1000CE010E94FC04C8010197F1F760E3CE0109
:100B20000E94FC0483E592E00197F1F760E2CE01B8
:100B30000E94FC046D81606240E0CE010E941505B8
:100B400084E08E8340E06CE0CE010E941505CE016A
:100B50000E94300582E08F8340E066E0CE010E9473
:100B6000150540E062E0CE010E9415058BE39FE190
:100B70000197F1F7DF91CF911F910F910895FC013B
:100B800080819181009711F00C94A41008950F9327
:100B90001F93CF93DF93EC0188819981009759F0DF
:100BA0002A813B812617370730F081E0DF91CF9112
:100BB0001F910F9108958B016F5F7F4F0E942D1140
:100BC000009759F0998388831B830A832C813D8188
:100BD000232B59F7FC011082E8CF80E0E7CFEF929A
:100BE000FF920F931F93CF93DF93EC01FB01E08003
:100BF000F180E114F10411F1048115810115110551
:100C0000A9F08C819D81080F191FB801CE010E94A7
:100C1000C705882399F0288139818C819D81B7018E
:100C2000820F931F0E94F3111D830C83CE01DF916D
:100C3000CF911F910F91FF90EF9008958881998136
:100C4000009711F00E94A410198218821D821C8244
:100C50001B821A82EBCFEF92FF920F931F93CF93D9
:100C6000DF93EC017B018A01BA010E94C70528814C
:100C70003981811114C02115310519F0C9010E9473
:100C8000A410198218821D821C821B821A82CE0136
:100C9000DF91CF911F910F91FF90EF9008951D83E9
:100CA0000C83B701C9010E94F311F1CFEF92FF92BB
:100CB0000F931F93CF93DF93CDB7DEB762970FB635
:100CC000F894DEBF0FBECDBF8C01CB01F8011182BD
:100CD000108213821282158214824AE09E012F5FD5
:100CE0003F4F7901B9010E94270FF70101900020C1
:100CF000E9F73197AF014E195F09B701C8010E94AA
:100D00002B0662960FB6F894DEBF0FBECDBFDF9103
:100D1000CF911F910F91FF90EF900895FB01DC019F
:100D200011961C921E9213961C921E921297159663
:100D30001C921E9214978617970749F06081718163
:100D40006115710521F0448155810C942B0608959D
:100D5000CF93DF93CDB7DEB762970FB6F894DEBFBF
:100D60000FBECDBF6091520270915302CE01079623
:100D70000E9456061A8219821C821B821E821D82C4
:100D800047E050E069E371E0CE0101960E942B0636
:100D9000BE01695F7F4FCE0101960E94EF05BC0145
:100DA000CE010D960E948E06CE0101960E94BF05CF
:100DB000CE0107960E94BF058FE393E00E943005A5
:100DC0008FE393E00E942C05BE01635F7F4F8FE3AA
:100DD00093E00E941F0182E393E00E94300582E3CA
:100DE00093E00E942C05BE01635F7F4F82E393E096
:100DF0000E941F0185E293E00E94300585E293E0A6
:100E00000E942C05BE01635F7F4F85E293E00E9444
:100E10001F01CE010D960E94BF0562960FB6F89491
:100E2000DEBF0FBECDBFDF91CF91089585ED8093DA
:100E3000BC0080910E0290910F02A0911002B0911F
:100E400011020796A11DB11D23E0B695A7959795B0
:100E500087952A95D1F72091BC0024FD03C01092FC
:100E60000C02089540910E0250910F026091100201
:100E700070911102452B462B472B69F30097A10572
:100E8000B10541F025E32A95F1F700000197A1098A
:100E9000B109E1CF80910D020C9461031F920F9272
:100EA0000FB60F9211242F933F934F935F936F933D
:100EB0007F938F939F93AF93BF93EF93FF93809113
:100EC000450290914602A0914702B0914802892BB9
:100ED0008A2B8B2BD1F190914002E0914102F0914D
:100EE0004202808189278083809145029091460249
:100EF000A0914702B0914802181619061A061B065F
:100F00009CF48091450290914602A0914702B091D5
:100F100048020197A109B1098093450290934602C6
:100F2000A0934702B0934802FF91EF91BF91AF9118
:100F30009F918F917F916F915F914F913F912F91F1
:100F40000F900FBE0F901F90189580910001E2EC5A
:100F5000F0E0E4919FEF90930001E13051F030F028
:100F6000E23069F060E00E945802DECF10926E001D
:100F7000F9CF90916F009D7F90936F00F3CF909188
:100F800070009D7F9093700091E09093B0009091DD
:100F9000B100987F94609093B1001092B300E2CFBB
:100FA0001F920F920FB60F9211242F933F934F93DE
:100FB0005F936F937F938F939F93AF93BF93EF93C1
:100FC000FF9384E592E00E947701FF91EF91BF913A
:100FD000AF919F918F917F916F915F914F913F91D1
:100FE0002F910F900FBE0F901F9018951F920F9288
:100FF0000FB60F9211242F938F939F93EF93FF932C
:10100000E0916402F09165028081E0916A02F091C2
:101010006B0282FD1BC0908180916D028F5F8F7388
:1010200020916E02821741F0E0916D02F0E0EC5ADF
:10103000FD4F958F80936D02FF91EF919F918F915E
:101040002F910F900FBE0F901F9018958081F4CFB5
:101050001F920F920FB60F9211242F933F938F93ED
:101060009F93AF93BF938091380290913902A091E2
:101070003A02B0913B023091370223E0230F2D3723
:1010800058F50196A11DB11D2093370280933802B7
:1010900090933902A0933A02B0933B0280913C02B4
:1010A00090913D02A0913E02B0913F020196A11D98
:1010B000B11D80933C0290933D02A0933E02B093F9
:1010C0003F02BF91AF919F918F913F912F910F90D0
:1010D0000FBE0F901F90189526E8230F0296A11DB2
:1010E000B11DD2CF1F920F920FB60F9211242F93E2
:1010F0003F934F935F936F937F938F939F93AF93A0
:10110000BF93CF93DF93EF93FF9380913602C0910B
:101110002103D0E087FF24C0109285001092840044
:10112000809136028F5F8093360280913602082EBE
:10113000000C990B8C179D0724F4809136028C309B
:10114000C4F18091840090918500049680349C497C
:1011500008F47AC08091840090918500049676C04E
:1011600080913602082E000C990B8C179D07C4F64F
:10117000E09136028E2FEE0F990BFC01EE0FFF1F50
:10118000E80FF91FE350FD4F808186FFC9CFE09142
:1011900036028E2FEE0F990BFC01EE0FFF1FE80FAA
:1011A000F91FE350FD4F808160E08F730E94580269
:1011B000B7CF2091840030918500E09136028E2FC8
:1011C000EE0F990BFC01EE0FFF1FE80FF91FE35024
:1011D000FD4F81819281820F931F909389008093AC
:1011E0008800E09136028E2FEE0F990BFC01EE0F76
:1011F000FF1FE80FF91FE350FD4F808186FF11C0EC
:10120000E09136028E2FEE0F990BFC01EE0FFF1FBF
:10121000E80FF91FE350FD4F808161E08F730E945A
:101220005802FF91EF91DF91CF91BF91AF919F91C4
:101230008F917F916F915F914F913F912F910F907F
:101240000FBE0F901F90189580E49CE99093890041
:10125000809388008FEF80933602E3CF1F920F9226
:101260000FB60F9211242F933F934F935F936F9379
:101270007F938F939F93AF93BF93EF93FF9380914F
:10128000B900887F803609F44AC0F0F5883209F445
:10129000A7C018F5803109F49BC0B8F4882309F47D
:1012A000F9C0883009F494C0FF91EF91BF91AF91DC
:1012B0009F918F917F916F915F914F913F912F916E
:1012C0000F900FBE0F901F901895883109F488C0B9
:1012D000803251F780930A0214C0803409F49DC013
:1012E00040F48033B9F38833F9F680930A0285EC31
:1012F000B0C0803509F485C0883509F496C08834BB
:1013000099F60E941607D0CF883909F48CC038F5B9
:10131000883729F050F4883611F0803729F683E0B9
:1013200080930C021092DF0157C0883809F47BC00B
:10133000803919F0803809F0B7CF8091DF01803211
:1013400008F071C0E091DF0181E08E0F8093DF0132
:101350008091BB00F0E0E154FE4F80833DC0803BB4
:1013600039F0E0F4803A09F479C0883A09F09CCF6A
:1013700084E080930C021092BE011092BD01E091B6
:10138000E201F091E30109958091BD0181110FC047
:1013900081E08093BD0110929D0109C0803C09F459
:1013A000A6CF883C09F4A3CF883B09F07DCFE0911C
:1013B000BE0181E08E0F8093BE01F0E0E356FE4F48
:1013C00080818093BB009091BE018091BD0129C0B6
:1013D0008091E7018093BB0085EC8093BC0064CFD3
:1013E0009091090280910802981758F5E09109023E
:1013F00081E08E0F80930902F0E0E851FE4F80817A
:10140000E9CFE091090281E08E0F8093090280917B
:10141000BB00F0E0E851FE4F80839091090280917B
:1014200008029817C8F285E8D8CFE091090281E058
:101430008E0F809309028091BB00F0E0E851FE4FCF
:10144000808380910B0281115CCF81E08093E60163
:1014500084EA8093BC0010920C0226CF85EC809326
:10146000BC0010920C028091DF01803230F4E091D8
:10147000DF01F0E0E154FE4F10826091DF0170E087
:10148000E091E001F091E1018FEB91E0099510927C
:10149000DF010ACF10920A0234CF10925702109245
:1014A000560288EE93E0A0E0B0E08093580290935B
:1014B0005902A0935A02B0935B022DE031E03093C1
:1014C00055022093540225EC30E0309361022093C2
:1014D000600224EC30E0309363022093620220EC3F
:1014E00030E0309365022093640221EC30E03093C9
:1014F00067022093660222EC30E030936902209369
:10150000680226EC30E030936B0220936A0210925E
:101510006D0210926E0210926F0210927002109281
:10152000F4021092F3028093F5029093F602A093D6
:10153000F702B093F8028FE191E09093F20280936A
:10154000F102109242031092410321E331E0309303
:10155000400320933F031092480385E280934303A6
:1015600090E19093490382E080934A0310924B03E9
:1015700010923503109234033093330320933203D7
:1015800010923B0344E24093360390933C038093D4
:101590003D0310923E0310922803109227033093CC
:1015A00026032093250310922E0322E22093290381
:1015B00090932F0380933003109231038091210385
:1015C0008C3098F491E0980F90932103809322033C
:1015D00090E0FC01EE0FFF1FE80FF91FE350FD4FF5
:1015E00088EB9BE09283818308958FEF80932203A1
:1015F0000895CF93DF93CDB7DEB762970FB6F89417
:10160000DEBF0FBECDBF789484B5826084BD84B543
:10161000816084BD85B5826085BD85B5816085BDED
:1016200080916E00816080936E00109281008091A5
:10163000810082608093810080918100816080932D
:101640008100809180008160809380008091B10052
:1016500084608093B1008091B00081608093B0007D
:1016600080917A00846080937A0080917A00826011
:1016700080937A0080917A00816080937A008091D3
:101680007A00806880937A001092C100E091640231
:10169000F091650282E08083E0916002F091610246
:1016A0001082E0916202F09163028FEC80831092CD
:1016B0006C02E0916802F091690286E08083E0911B
:1016C0006602F0916702808180618083E09166020A
:1016D000F0916702808188608083E0916602F091DA
:1016E0006702808180688083E0916602F0916702E2
:1016F00080818F7D80838FE393E00E944C0582E39D
:1017000093E00E944C0585E293E00E944C0518E0AE
:1017100010934B0360E08FE393E00E940804109362
:101720003E0360E082E393E00E94080410933103DB
:1017300060E085E293E00E9408048FE393E00E945A
:101740002C0561E471E08FE393E00E94F20482E3F0
:1017500093E00E942C0561E471E082E393E00E9433
:10176000F20485E293E00E942C0561E471E085E2D9
:1017700093E00E94F20462E082E00E94860262E04E
:1017800083E00E94860262E084E00E94860260E0BC
:101790008EE00E94860260E08FE00E94860260E098
:1017A00080E10E94860260E081E10E94860261E0A1
:1017B00089E00E94860261E08AE00E94860261E080
:1017C0008CE00E94860261E087E00E94860261E070
:1017D00088E00E94860261E085E00E94860261E066
:1017E00085E00E945802809122038C3008F051C09D
:1017F00061E086E00E94860280912203282F30E07B
:10180000F901EE0FFF1FE20FF31FE350FD4F908130
:10181000907C9660908310922303109224032CE016
:10182000622F0E94F60F829FB001112430E020E069
:10183000AB01420F531FFA01EE0FFF1FE40FF51F1C
:10184000E350FD4F908196FD16C02F5F3F4F2C3027
:10185000310571F781110FC01092800082E08093F2
:1018600081001092850010928400B19A80916F00DF
:10187000826080936F00E09122038E2F90E0FC0144
:10188000EE0FFF1FE80FF91FE350FD4F80818064CA
:10189000808390E080E00E948D000E94A80662E0B4
:1018A000C62ED12CAA24A394B12CE8E54E2EE2E05A
:1018B0005E2E612C712C38ECE32EF12C4AEB242E99
:1018C00040E0342E5CE9852E50E0952E82E00E94A7
:1018D0002F02892B09F0AEC0109202011092010173
:1018E00084E592E00E945701892B59F084E592E04B
:1018F0000E943501803309F0B2C0109202011092AB
:10190000010100910101109102010F3F100709F43C
:10191000FCC080915202909153020817190709F4F4
:10192000F4C0809151028111F0C081E08093510296
:10193000B801CE0107960E9456061A8219821C82AF
:101940001B821E821D8240E150E060E571E0CE0105
:1019500001960E942B06BE01695F7F4FCE01019662
:101960000E94EF05BC01CE010D960E948E06CE01AD
:1019700001960E94BF05CE0107960E94BF058FE326
:1019800093E00E9430058FE393E00E942C05BE0196
:10199000635F7F4F8FE393E00E941F0182E393E038
:1019A0000E94300582E393E00E942C05BE01635F34
:1019B0007F4F82E393E00E941F0185E293E00E9443
:1019C000300585E293E00E942C05BE01635F7F4FE6
:1019D00085E293E00E941F01809152029091530290
:1019E000801791070CF04AC061E089E00E9458021C
:1019F00060E08AE00E94580261E087E00E9458029D
:101A000060E088E00E94580261E085E00E94860262
:101A1000E1E8F0E08491833009F4BBC0E8F581305F
:101A200009F44CC0823009F4AEC061E085E00E9448
:101A3000580249C083E00E942F02892B29F4B092FA
:101A40000201A09201014CCF84E00E942F02892B59
:101A500009F046CFD0920201C092010141CF8133FB
:101A600029F4B0920201A09201014BCF823309F018
:101A700048CFD0920201C092010143CF60E089E0DB
:101A80000E94580261E08AE00E94580260E087E00C
:101A90000E94580261E0B5CF873009F484C08830D5
:101AA00009F48AC0843009F68091800080628093B6
:101AB0008000F0928B00E0928A0005C084B58068B7
:101AC00084BD88EC87BD68EB7BE080E090E00E94FD
:101AD000E70261E085E00E94860260E085E00E9406
:101AE000580260E089E00E94580260E08AE00E94AB
:101AF00058021093530200935202109251020E9416
:101B0000A806CE010D960E94BF05809152029091C9
:101B1000530220910101309102018217930709F0CD
:101B200069C1019609F466C180915102811162C1B7
:101B3000809100018C3009F048C0E2ECF0E0149193
:101B400017FDE2C061E08CE00E948602112309F4D7
:101B5000ABC0123009F0BCC08091B100887F8360B7
:101B60008093B10089EF8093B30040924502509278
:101B70004602609247027092480280917000826033
:101B800080937000C1C084B5806284BD88EC88BD3C
:101B90009ACF80918000806880938000F0928900C5
:101BA000E092880090CF8091B00080688093B00070
:101BB00088EC8093B30087CF8091B00080628093DF
:101BC000B00088EC8093B4007ECF8F3F09F09CC0BA
:101BD0008CE080930001E2ECF0E014911F3F09F4E7
:101BE00093C0113019F150F0123009F43CC017FDC8
:101BF0008BC061E08CE00E948602ABCF14BC15BCA8
:101C000084B5826084BD85B5816085BDF101849114
:101C1000E82FF0E0EE0FFF1FEC55FF4F85919491F8
:101C2000F40184918093440210E08CCF10928000E4
:101C30001092810080918100886080938100809162
:101C40008100816080938100F1018491E82FF0E0B0
:101C5000EE0FFF1FEC55FF4F85919491F401849195
:101C6000809343026FCF1092B0001092B100809128
:101C7000B00082608093B0008091B1008160809359
:101C8000B100F1018491E82FF0E0EE0FFF1FEC5559
:101C9000FF4F859194919093420280934102F40109
:101CA0008491809340024ECF85B5887F836085BD47
:101CB0008CE787BD40924D0250924E0260924F02D7
:101CC0007092500280916E00826080936E001CC002
:101CD000113009F09CC080918100887F81608093E1
:101CE00081008FE39FE19093890080938800409268
:101CF000490250924A0260924B0270924C028091CB
:101D00006F00826080936F0064EF71E080E090E08C
:101D10000E94E70281E10E942F0205E010E0019796
:101D200009F07DC08FE393E00E9430058FE393E0DC
:101D30000E942C0561E671E08FE393E00E94F204BB
:101D400082E393E00E94300582E393E00E942C0539
:101D500061E671E082E393E00E94F20485E293E0A1
:101D60000E94300585E293E00E942C0561E671E057
:101D700085E293E00E94F2048AE590E00E948D00E3
:101D800060ED77E080E090E00E94E70290E080E084
:101D90000E948D008FE393E00E9430058FE393E073
:101DA0000E942C056FE671E08FE393E00E94F2043D
:101DB00082E393E00E94300582E393E00E942C05C9
:101DC0006FE671E082E393E00E94F20485E293E023
:101DD0000E94300585E293E00E942C056FE671E0D9
:101DE00085E293E00E94F204EFEFFFEFF09302012F
:101DF000E093010180E090E0892B09F467CD0E9417
:101E00006301882309F457CD0E94000054CD12309D
:101E100021F0111179CF8FE34CCF8FE3A4CE61E095
:101E20008CE00E94580264E670E080E090E00E943E
:101E3000E70260E08CE00E94580264E670E080E017
:101E400090E00E94E7020150110949F7CDCFBB276E
:101E50004A3031F4992322F4BDE2909581959F4F49
:101E60000C94330FBB27FB015527AA27880F991F16
:101E7000AA1FA41710F0A41B83955051B9F7A05DB9
:101E8000AA3308F0A95DA193009779F7B111B19336
:101E90001192CB010C944C0FDC01FC01672F719166
:101EA0007723E1F7329704C07C916D937083629140
:101EB000AE17BF07C8F30895052E97FB1EF40094D4
:101EC0000E94730F57FD07D00E94C50F07FC03D077
:101ED0004EF40C94730F50954095309521953F4FDB
:101EE0004F4F5F4F089590958095709561957F4F06
:101EF0008F4F9F4F08950E94E70FA59F900DB49FAD
:101F0000900DA49F800D911D11240895B7FF0C948E
:101F10007B0F0E947B0F821B930B08952F923F92A1
:101F20004F925F926F927F928F929F92AF92BF92E9
:101F3000CF92DF92EF92FF920F931F93CF93DF9395
:101F4000CDB7DEB7CA1BDB0B0FB6F894DEBF0FBEF2
:101F5000CDBF09942A88398848885F846E847D843F
:101F60008C849B84AA84B984C884DF80EE80FD8041
:101F70000C811B81AA81B981CE0FD11D0FB6F894B7
:101F8000DEBF0FBECDBFED010895A1E21A2EAA1B40
:101F9000BB1BFD010DC0AA1FBB1FEE1FFF1FA21719
:101FA000B307E407F50720F0A21BB30BE40BF50B16
:101FB000661F771F881F991F1A9469F7609570959F
:101FC000809590959B01AC01BD01CF010895A29F22
:101FD000B001B39FC001A39F700D811D1124911DFD
:101FE000B29F700D811D1124911D0895991B79E0F8
:101FF00004C0991F961708F0961B881F7A95C9F799
:1020000080950895EE0FFF1F0590F491E02D09943F
:102010000F931F93CF93DF938230910510F482E0EA
:1020200090E0E0914E03F0914F0330E020E0B0E00B
:10203000A0E0309799F42115310509F44AC0281B16
:10204000390B24303105D8F58A819B8161157105E2
:1020500089F1FB0193838283FE0111C0408151818C
:102060000281138148175907E0F04817590799F47E
:10207000109761F012960C93129713961C93329658
:10208000CF01DF91CF911F910F91089500934E03DF
:1020900010934F03F4CF2115310551F04217530728
:1020A00038F0A901DB019A01BD01DF01F801C1CFC0
:1020B000EF01F9CF90934F0380934E03CDCFFE01F4
:1020C000E20FF31F819391932250310939832883C2
:1020D000D7CF20914C0330914D03232B41F4209115
:1020E00005013091060130934D0320934C0320915C
:1020F0000301309104012115310541F42DB73EB79C
:102100004091070150910801241B350BE0914C03CD
:10211000F0914D03E217F307A0F42E1B3F0B281795
:10212000390778F0AC014E5F5F4F2417350748F050
:102130004E0F5F1F50934D0340934C038193919337
:102140009FCFF0E0E0E09CCFCF93DF930097E9F0E2
:10215000FC01329713821282A0914E03B0914F037B
:10216000ED0130E020E01097A1F420813181820F51
:10217000931F20914C0330914D032817390709F024
:1021800061C0F0934D03E0934C03DF91CF9108952C
:10219000EA01CE17DF07E8F54A815B819E01411510
:1021A0005105B1F7E901FB83EA8349915991C40FC5
:1021B000D51FEC17FD0761F4808191810296840F91
:1021C000951FE90199838883828193819B838A8308
:1021D000F0E0E0E012968D919C9113970097B9F58D
:1021E0002D913C911197CD010296820F931F209162
:1021F0004C0330914D032817390739F6309751F5C4
:1022000010924F0310924E03B0934D03A0934C03D2
:10221000BCCFD383C28340815181840F951FC817DF
:10222000D90761F44E5F5F4F88819981480F591F2C
:10223000518340838A819B81938382832115310559
:1022400009F0B0CFF0934F03E0934E039ECFFD0112
:10225000DC01C0CF13821282D7CFB0E0A0E0E3E36D
:10226000F1E10C94900F8C01009751F4CB010E9486
:1022700008108C01C801CDB7DEB7E0E10C94AC0FBB
:10228000FC01E60FF71F9C0122503109E217F3070A
:1022900008F49DC0D901CD91DC911197C617D707DD
:1022A00098F0C530D10530F3CE0104978617970713
:1022B00008F3C61BD70B2297C193D1936D937C93E0
:1022C000CF010E94A410D6CF5B01AC1ABD0A4C010D
:1022D0008C0E9D1EA0914E03B0914F03512C412CAA
:1022E000F12CE12C109731F580914C0390914D0326
:1022F0008815990509F05CC04616570608F058C0C5
:102300008091030190910401009741F48DB79EB72D
:102310004091070150910801841B950BE817F907BC
:1023200008F055C0F0934D03E0934C03F90171831D
:102330006083A0CF8D919C91119712966C9012970B
:1023400013967C901397A815B90559F56C0142E0D6
:10235000C40ED11CCA14DB0420F1AC014A195B097C
:10236000DA011296159780F062827382518340835E
:10237000D9016D937C93E114F10471F0D7011396A8
:10238000FC93EE93129776CF22968C0F9D1FF90146
:1023900091838083F301EFCFF0934F03E0934E03DB
:1023A00069CF4816590608F42C017D01D3019ACF54
:1023B000CB010E9408107C01009749F0AE01B801E2
:1023C0000E94EA11C8010E94A410870153CF10E0B7
:1023D00000E050CFFB01DC0102C001900D924150A2
:1023E0005040D8F70895FB01DC0101900D920020C8
:1023F000E1F70895F894FFCFFFFFFF00005003803E
:1024000000000000009901F2002601E601570135A5
:1024100001490100000000D903AC03EF048203A5C9
:102420000392038303000000004605F200EF041B43
:102430000345746167653A2000417363656E736597
:102440007572205072657400416C6C657220612059
:102450006C2765746167652000506F727465204F4A
:1024600075766572746500506F727465204665728A
:042470006D65650031
:107E0000112484B714BE81FFF0D085E080938100F7
:107E100082E08093C00088E18093C10086E0809377
:107E2000C20080E18093C4008EE0C9D0259A86E02C
:107E300020E33CEF91E0309385002093840096BBD3
:107E4000B09BFECF1D9AA8958150A9F7CC24DD24C4
:107E500088248394B5E0AB2EA1E19A2EF3E0BF2EE7
:107E6000A2D0813461F49FD0082FAFD0023811F036
:107E7000013811F484E001C083E08DD089C08234E0
:107E800011F484E103C0853419F485E0A6D080C0E4
:107E9000853579F488D0E82EFF2485D0082F10E0AE
:107EA000102F00270E291F29000F111F8ED06801E7
:107EB0006FC0863521F484E090D080E0DECF843638
:107EC00009F040C070D06FD0082F6DD080E0C81688
:107ED00080E7D80618F4F601B7BEE895C0E0D1E017
:107EE00062D089930C17E1F7F0E0CF16F0E7DF06D8
:107EF00018F0F601B7BEE89568D007B600FCFDCFD4
:107F0000A601A0E0B1E02C9130E011968C91119780
:107F100090E0982F8827822B932B1296FA010C0160
:107F200087BEE89511244E5F5F4FF1E0A038BF0790
:107F300051F7F601A7BEE89507B600FCFDCF97BE46
:107F4000E89526C08437B1F42ED02DD0F82E2BD052
:107F50003CD0F601EF2C8F010F5F1F4F84911BD097
:107F6000EA94F801C1F70894C11CD11CFA94CF0C13
:107F7000D11C0EC0853739F428D08EE10CD085E9AC
:107F80000AD08FE07ACF813511F488E018D01DD067
:107F900080E101D065CF982F8091C00085FFFCCF94
:107FA0009093C60008958091C00087FFFCCF809118
:107FB000C00084FD01C0A8958091C6000895E0E648
:107FC000F0E098E1908380830895EDDF803219F02E
:107FD00088E0F5DFFFCF84E1DECF1F93182FE3DFCA
:107FE0001150E9F7F2DF1F91089580E0E8DFEE27F6
:047FF000FF270994CA
:027FFE00040479
:00000001FF
